:020000040800F2
:10000000980500209D0100088D280008111E000899
:100010008928000895030008C52D0008000000008D
:10002000000000000000000000000000D1290008CE
:10003000C10300080000000069290008292A0008FF
:10004000B7010008B7010008B7010008B7010008B0
:10005000B7010008B7010008B7010008B7010008A0
:10006000B7010008B7010008B7010008B701000890
:10007000B7010008B7010008B7010008B701000880
:10008000B7010008B7010008B7010008B701000870
:10009000B7010008B7010008B7010008B701000860
:1000A000B7010008B7010008B7010008B701000850
:1000B000B7010008B7010008B7010008B701000840
:1000C000B7010008B7010008B7010008B701000830
:1000D000B7010008B7010008B7010008B701000820
:1000E000B7010008B7010008B7010008B701000810
:1000F000B7010008B7010008B7010008B701000800
:10010000B7010008B7010008B7010008B7010008EF
:10011000B7010008B7010008B7010008B7010008DF
:1001200099030008B7010008B7010008B7010008EB
:10013000B7010008B7010008B7010008B7010008BF
:10014000B7010008B7010008B7010008B7010008AF
:10015000B7010008B7010008B7010008B70100089F
:10016000B7010008B7010008B7010008B70100088F
:10017000B7010008B7010008B7010008000000003F
:10018000B7010008B7010008DFF80CD000F07AF8DA
:1001900000480047DD2E00089805002006488047EB
:1001A00006480047FEE7FEE7FEE7FEE7FEE7FEE75C
:1001B000FEE7FEE7FEE7FEE7112B000889010008D5
:1001C0002DE9F05F0546002092469B46884606468C
:1001D000814640241BE0284641464746224600F01F
:1001E00041F853465A46C01A914110D31146184659
:1001F000224600F028F82D1A67EB01084F462246E8
:100200000120002100F01FF817EB00094E41201ECD
:10021000A4F10104DFDC484631462A464346BDE8E6
:10022000F09FD2B201E000F8012B491EFBD27047CB
:100230000022F6E710B513460A4604461946FFF7B2
:10024000F0FF204610BD202A04DB203A00FA02F11C
:10025000002070479140C2F1200320FA03F31943B4
:1002600090407047202A04DB203A21FA02F0002156
:10027000704721FA02F3D040C2F1200291400843B6
:1002800019467047064C074D06E0E06840F0010350
:1002900094E8070098471034AC42F6D3FFF778FF94
:1002A000103000083030000880B584B00020039082
:1002B000ADF80A00FFE7BDF80A007C2812D8FFE776
:1002C000BDF80A1040F21600C2F2000030F811101A
:1002D000039808440390FFE7BDF80A000130ADF829
:1002E0000A00E8E7039A40F21001C2F20001086830
:1002F00010440860039844F6D351C1F26201A0FB98
:100300000110C0080390039B40F21410C2F20000D9
:100310000022114600F01AF940F21401C2F2000165
:10032000087801300870C0B228281EDBFFE70020E3
:10033000C4F20200022100F05DFB40F21011C2F293
:1003400000010120087040F21001C2F200010868AB
:1003500040F29012C2F2000210600020086040F2E9
:100360001401C2F200010870FFE746F20040C4F237
:1003700002000090002101917D2201F049FF0098C8
:10038000019901F007FF0098019901F013FF04B0F3
:1003900080BD0000FFE7FEE780B546F20040C4F2F2
:1003A000020001F017FF48B1FFE746F20040C4F237
:1003B000020001F0A5FEFFF777FFFFE780BD000018
:1003C0007047000081B0EFF3108072B60090FFE735
:1003D000FEE7000086B0049003910292FFE70498C4
:1003E0004079012804D1FFE702208DF817003EE094
:1003F000049901204871FFE7FFE704990220087182
:100400000498006800680190029800F0100140F61E
:10041000FE7000FA01F10198884301900399086881
:100420004968084300900098029901F0100100FA11
:1004300001F1019808430190019804990968086046
:10044000029800F01001C02000FA01F2049801683F
:10045000086890430860049901200871FFE7049937
:1004600000204871FFE700208DF81700FFE79DF896
:10047000170006B07047000080B582B00090009869
:1004800020B9FFE701208DF8070016E000980079F9
:1004900038B9FFE7009900204871009800F012F881
:1004A000FFE7009902200871009900200861009A76
:1004B000012111718DF80700FFE79DF8070002B0D8
:1004C00080BD000080B588B00790002006900590A0
:1004D0000490039002900798006847F20041C4F22C
:1004E000000188422FD1FFE7FFE70020019043F68B
:1004F0004000C4F20200016841F000510160006850
:1005000000F0005001900198FFE7FFE70020009005
:1005100043F63000C4F20200016841F001010160BD
:10052000006800F0010000900098FFE710200290A2
:1005300003200390002004900020C4F2020002A9CE
:1005400000F07CF8FFE708B080BD000085B00490A3
:10055000039102920193002000900498006800909B
:10056000039830B9FFE702980099084408300090DA
:1005700005E002980099084414300090FFE70198C4
:1005800000990860002005B07047000083B001901A
:100590000091FFE701984079012804D1FFE702208C
:1005A0008DF80B0046E0019901204871FFE7FFE755
:1005B000019902200871009800F01001012000FA52
:1005C00001F201980168086810430860009880B93A
:1005D000FFE701980068006800F03C003C2807D164
:1005E000FFE701980168486840F001004860FFE7B4
:1005F00014E001980068006800F47010009901F0A0
:1006000010023C219140884207D1FFE70198016820
:10061000486840F002004860FFE7FFE701990120C9
:100620000871FFE7019900204871FFE700208DF86D
:100630000B00FFE79DF80B0003B070478EB00D90E4
:100640000C9100200A90099008900B90FFE70B98FE
:100650000F2800F2CC81FFE70B99012088400A9017
:100660000C9800680A990840099009980A998842EC
:1006700040F0B881FFE70C98406800F003000128C3
:1006800007D0FFE70C98406800F0030002282FD144
:10069000FFE70D98806808900B984100032000FA4E
:1006A00001F10898884308900C98C0680B9949009C
:1006B00000FA01F108980843089008980D9988609D
:1006C0000D98406808900B99012000FA01F10898F4
:1006D000884308900C984068C0F300100B9900FA0A
:1006E00001F108980843089008980D994860FFE7C1
:1006F0000C98406800F00300032818D0FFE70D981D
:10070000C06808900B984100032000FA01F1089896
:10071000884308900C9880680B99490000FA01F111
:1007200008980843089008980D99C860FFE70C984E
:10073000406800F00300022826D1FFE70D980B99CE
:100740006FF0030202EA51010844006A08900B9816
:1007500000F0070081000F2000FA01F1089888439B
:1007600008900C9800690B9901F00701890000FAC4
:1007700001F108980843089008980D990B9B02EA2C
:10078000530211440862FFE70D98006808900B9827
:100790004100032000FA01F10898884308900C9862
:1007A000406800F003000B99490000FA01F1089835
:1007B0000843089008980D9908600C988079800784
:1007C000002800F00E81FFE7FFE70020079043F6C6
:1007D0004400C4F20200016841F4804101600068F5
:1007E00000F4804007900798FFE70B9820F0030083
:1007F00043F60801C4F20101405808900B9800F03C
:10080000030081000F2000FA01F108988843089046
:100810000D980021C4F20201884203D1FFE70020B5
:1008200006905EE00D9840F20041C4F20201884259
:1008300003D1FFE70120059050E00D9840F600013C
:10084000C4F20201884203D1FFE70220049042E093
:100850000D9840F60041C4F20201884203D1FFE73F
:100860000320039034E00D9841F20001C4F202012C
:10087000884203D1FFE70420029026E00D9841F260
:100880000041C4F20201884203D1FFE70520019034
:1008900018E00D9841F60001C4F20201884203D12C
:1008A000FFE7062000900AE00D9941F60042C4F2ED
:1008B00002020820914208BF07200090FFE700983D
:1008C0000190FFE701980290FFE702980390FFE78D
:1008D00003980490FFE704980590FFE705980690B9
:1008E000FFE70698C0B20B9901F00301890000FAF6
:1008F00001F108980843089008980B9921F003012A
:1009000043F60802C4F20102885043F60040C4F2E4
:1009100001000068089009990898884308900C988D
:100920008079C00728B1FFE7099908980843089023
:10093000FFE7089843F60041C4F20101086043F65E
:100940000440C4F20100006808900999089888439F
:1009500008900C9880798007002805D5FFE7099951
:10096000089808430890FFE7089843F60441C4F24A
:100970000101086043F60840C4F2010000680890D5
:1009800009990898884308900C988079C006002837
:1009900005D5FFE70999089808430890FFE70898EC
:1009A00043F60841C4F20101086043F60C40C4F26A
:1009B00001000068089009990898884308900C98ED
:1009C00080798006002805D5FFE709990898084333
:1009D0000890FFE7089843F60C41C4F20101086053
:1009E000FFE7FFE7FFE70B9801300B902FE60EB013
:1009F0007047000083B00290ADF80610029840697D
:100A00000090009ABDF8060002EA0001904340EA17
:100A100001400299886103B07047000082B00190E4
:100A2000ADF802108DF801209DF8010028B1FFE714
:100A3000BDF802000199886105E0BDF802000004DC
:100A400001998861FFE702B07047000040F29410FE
:100A5000C2F200000068704740F20400C2F20000D9
:100A6000027840F29411C2F2000108681044086054
:100A70007047000080B582B043F60041C4F2020125
:100A8000086840F400700860086840F480600860FE
:100A9000086840F480700860032000F085F80020AA
:100AA000019000F005F800F03BF8019802B080BD1D
:100AB00080B582B0009040F20000C2F200000068F1
:100AC00040F20401C2F200010A784FF47A71B1FBDE
:100AD000F2F1B0FBF1F000F05FFF20B1FFE7012081
:100AE0008DF8070018E000980F280DD8FFE700994F
:100AF0004FF0FF30002200F03DF8009840F208016E
:100B0000C2F20001086003E001208DF8070003E055
:100B100000208DF80700FFE79DF8070002B080BDB8
:100B200080B582B0FFE70020019043F64400C4F294
:100B30000200016841F480410160006800F48040D7
:100B400001900198FFE7FFE70020009043F6400086
:100B5000C4F20200016841F080510160006800F0B9
:100B6000805000900098FFE7072000F01DF802B0C9
:100B700080BD000080B586B08DF817000491039207
:100B80000020029002F040F902909DF917000190B8
:100B900002980499039A01F0B1FE0146019802F00F
:100BA0005DF906B080BD000080B582B0019001986B
:100BB00002F076F902B080BD80B586B004900020C6
:100BC0000390029004980078C00730B9FFE70498BA
:100BD0000078400700284ED5FFE76821C4F247217E
:100BE00000200860FFF732FF0390FFE743F60000A4
:100BF000C4F20200006800F000610020B0EBD16F89
:100C00000CD0FFE7FFF722FF0399401A032804D313
:100C1000FFE703208DF81700E4E0E7E70499486850
:100C20008968800140EA017043F68401C4F2020140
:100C300008606821C4F2472101200860FFF706FF21
:100C40000390FFE743F60000C4F20200006800F0E2
:100C500000610020B0EBD16F0CD1FFE7FFF7F6FE8B
:100C60000399401A032804D3FFE703208DF81700E7
:100C7000B8E0E7E7FFE7049800788007002840F134
:100C8000AD80FFE7FFE70020019043F64000C4F28B
:100C90000200016841F080510160006800F080505E
:100CA00001900198FFE747F20001C4F200010868D3
:100CB00040F480700860FFF7C9FE0390FFE747F239
:100CC0000000C4F200000068C00500280CD4FFE753
:100CD000FFF7BCFE0399401A032804D3FFE7032063
:100CE0008DF817007EE0EAE743F67000C4F20200D8
:100CF000006800F440700290029800283ED0FFE7A0
:100D000002980499C96801F44071884236D0FFE71F
:100D100043F67000C4F20200016821F440710291B0
:100D200040F64062C4F247220121116000211160A7
:100D3000029901600068C007F8B1FFE7FFF786FE7F
:100D40000390FFE743F67000C4F20200006800F071
:100D500002010020B0EB510F0ED1FFE7FFF776FE46
:100D60000399401A41F28931884204D3FFE70320F6
:100D70008DF8170036E0E5E7FFE7FFE7FFE70498A7
:100D8000C06800F44070B0F5407F11D1FFE743F632
:100D90000801C4F20201086820F4F810049AD2682D
:100DA0004FF6FF43C0F6FF731A401043086008E097
:100DB00043F60801C4F20201086820F4F810086044
:100DC000FFE70498C2686FF31F3243F67001C4F264
:100DD0000201086810430860FFE7FFE700208DF874
:100DE0001700FFE79DF8170006B080BD80B584B0FE
:100DF00002900191029820B9FFE701208DF80F00C1
:100E000021E1019843F60041C4F20201096801F0B2
:100E10000701884212D9FFE7019943F60040C4F266
:100E200002000170006800F007000199884204D0B8
:100E3000FFE701208DF80F0005E1FFE70298007839
:100E4000800700282AD5FFE702980078400700288D
:100E500009D5FFE743F60801C4F20201086840F42F
:100E6000E0500860FFE7029800780007002809D5E5
:100E7000FFE743F60801C4F20201086840F460404D
:100E80000860FFE743F60801C4F20201086820F099
:100E9000F000029A926810430860FFE70298007819
:100EA000C00700286ED0FFE702984068012811D1E2
:100EB000FFE743F60000C4F20200006800F40031CE
:100EC0000020B0EB514F04D1FFE701208DF80F0057
:100ED000B9E02CE002984068022805D0FFE70298AC
:100EE0004068032811D1FFE743F60000C4F2020076
:100EF000006800F000710020B0EB516F04D1FFE7F3
:100F000001208DF80F009EE010E043F60000C4F2CF
:100F10000200006800F002010020B0EB510F04D184
:100F2000FFE701208DF80F008DE0FFE7FFE743F6B4
:100F30000801C4F20201086820F00300029A526816
:100F400010430860FFF782FD0090FFE743F60800BA
:100F5000C4F20200006800F00C0002994968B0EB8E
:100F6000810F0ED0FFE7FFF771FD0099401A41F2A3
:100F70008931884204D3FFE703208DF80F0062E037
:100F8000E4E7FFE7019843F60041C4F20201096873
:100F900001F00701884212D2FFE7019943F60040B1
:100FA000C4F202000170006800F007000199884255
:100FB00004D0FFE701208DF80F0044E0FFE702981E
:100FC0000078400700280CD5FFE743F60801C4F27B
:100FD0000201086820F4E050029AD26810430860C9
:100FE000FFE702980078000700280DD5FFE743F6D9
:100FF0000801C4F20201086820F46040029A1269F4
:1010000040EAC2000860FFE700F022F843F608015A
:10101000C4F202010968C9B20A0942F6F671C0F6C3
:101020000001895CC84040F20001C2F20001086082
:1010300040F20800C2F200000068FFF739FD00200E
:101040008DF80F00FFE79DF80F0004B080BD000091
:1010500080B586B00020059004900390029043F67E
:101060000800C4F20200006800F00C000146019183
:1010700040B1FFE7019804280AD0FFE7019808284B
:101080000CD04FE042F20040C0F2F40002904FE07A
:1010900041F20020C0F27A00029049E043F60400D9
:1010A000C4F20200016801F03F01059100684002AE
:1010B000002813D5FFE743F60400C4F202000068DD
:1010C000C0F3881041F20021C0F27A01A0FB0101B7
:1010D000059A0023FFF774F8049012E043F6040029
:1010E000C4F202000068C0F3881042F20041C0F26E
:1010F000F401A0FB0101059A0023FFF761F80490B9
:10110000FFE743F60400C4F20200006800F4403137
:10111000022000EBD130039004980399B0FBF1F06A
:10112000029005E042F20040C0F2F4000290FFE7B6
:10113000029806B080BD000080B586B00490049887
:1011400020B9FFE701208DF8170050E304980078DC
:10115000C007002800F0A580FFE743F60800C4F2AE
:101160000200006800F00C00042813D0FFE743F6EB
:101170000800C4F20200006800F00C0008281ED12C
:10118000FFE743F60400C4F20200006840020028B2
:1011900015D5FFE743F60000C4F20200006800F432
:1011A00000310020B0EB514F08D0FFE704984068B1
:1011B00020B9FFE701208DF8170018E370E0FFE782
:1011C00004984068B0F5803F09D1FFE743F600017D
:1011D000C4F20201086840F48030086020E00498FE
:1011E0004068B0F5A02F0DD1FFE743F60001C4F22F
:1011F0000201086840F480200860086840F48030EC
:1012000008600CE043F60001C4F20201086820F413
:1012100080300860086820F480200860FFE7FFE75E
:10122000FFE704984068E8B1FFE7FFF70FFC039081
:10123000FFE743F60000C4F20200006800F400314A
:101240000020B0EB514F0CD1FFE7FFF7FFFB0399F4
:10125000401A652804D3FFE703208DF81700C6E283
:10126000E7E71CE0FFF7F2FB0390FFE743F600001F
:10127000C4F20200006800F400310020B0EB514FCE
:101280000CD0FFE7FFF7E2FB0399401A652804D36F
:10129000FFE703208DF81700A9E2E7E7FFE7FFE784
:1012A000FFE7049800788007002840F19680FFE768
:1012B00043F60800C4F20200006810F00C0F13D0CF
:1012C000FFE743F60800C4F20200006800F00C00DB
:1012D00008282CD1FFE743F60400C4F2020000689E
:1012E0004002002823D4FFE743F60000C4F20200C6
:1012F000006800F002010020B0EB510F09D0FFE7B9
:101300000498C068012804D0FFE701208DF8170079
:101310006DE243F60001C4F20201086820F0F80013
:10132000049A126940EAC2000860FFE754E004989A
:10133000C06870B3FFE70021C4F2472101200860B4
:10134000FFF784FB0390FFE743F60000C4F20200BE
:10135000006800F002010020B0EB510F0CD1FFE754
:10136000FFF774FB0399401A032804D3FFE7032017
:101370008DF817003BE2E7E743F60001C4F20201F3
:10138000086820F0F800049A126940EAC200086078
:1013900021E00021C4F2472100200860FFF756FB3E
:1013A0000390FFE743F60000C4F20200006800F07B
:1013B00002010020B0EB510F0CD0FFE7FFF746FB16
:1013C0000399401A032804D3FFE703208DF8170080
:1013D0000DE2E7E7FFE7FFE7FFE704980078000783
:1013E00000284BD5FFE70498406918B3FFE740F6A3
:1013F0008061C4F2472101200860FFF727FB0390BA
:10140000FFE743F67400C4F20200006800F0020136
:101410000020B0EB510F0CD1FFE7FFF717FB03994A
:10142000401A032804D3FFE703208DF81700DEE1FC
:10143000E7E722E040F68061C4F24721002008601F
:10144000FFF704FB0390FFE743F67400C4F20200C9
:10145000006800F002010020B0EB510F0CD0FFE754
:10146000FFF7F4FA0399401A032804D3FFE7032097
:101470008DF81700BBE1E7E7FFE7FFE70498007886
:101480004007002840F1CE80FFE700208DF80700DC
:1014900043F64000C4F202000068C000002815D4E2
:1014A000FFE7FFE70020009043F64000C4F202008F
:1014B000016841F080510160006800F080500090A8
:1014C0000098FFE701208DF80700FFE747F20000D2
:1014D000C4F200000068C005002822D4FFE747F2EC
:1014E0000001C4F20001086840F480700860FFF752
:1014F000ADFA0390FFE747F20000C4F20000006875
:10150000C00500280CD4FFE7FFF7A0FA0399401AA2
:10151000032804D3FFE703208DF8170067E1EAE70B
:10152000FFE7FFE704988068012809D1FFE743F649
:101530007001C4F20201086840F0010008601FE079
:101540000498806805280DD1FFE743F67001C4F2C6
:101550000201086840F004000860086840F00100DB
:1015600008600CE043F67001C4F20201086820F044
:1015700001000860086820F004000860FFE7FFE74A
:10158000FFE704988068F8B1FFE7FFF75FFA039080
:10159000FFE743F67000C4F20200006800F00201A9
:1015A0000020B0EB510F0ED1FFE7FFF74FFA039980
:1015B000401A41F28931884204D3FFE703208DF8B5
:1015C000170014E1E5E71EE0FFF740FA0390FFE79C
:1015D00043F67000C4F20200006800F0020100202F
:1015E000B0EB510F0ED0FFE7FFF730FA0399401A26
:1015F00041F28931884204D3FFE703208DF81700B8
:10160000F5E0E5E7FFE79DF80700012809D1FFE7CE
:1016100043F64001C4F20201086820F080500860DF
:10162000FFE7FFE704988069002800F0DC80FFE70F
:1016300043F60800C4F20200006800F00C0008281D
:1016400000F08580FFE70498806902285CD1FFE7FD
:101650006021C4F2472100200860FFF7F7F90390EA
:10166000FFE743F60000C4F20200006800F00071DA
:101670000020B0EB516F0CD0FFE7FFF7E7F90399BB
:10168000401A032804D3FFE703208DF81700AEE0CB
:10169000E7E70499C869D1F820C04B6A8A6A40EA32
:1016A0000C0040EA8310D2034FF6FF739A43A2F571
:1016B00080321043C96A40EA016043F60401C4F273
:1016C000020108606021C4F2472101200860FFF791
:1016D000BDF90390FFE743F60000C4F20200006882
:1016E00000F000710020B0EB516F0CD1FFE7FFF765
:1016F000ADF90399401A032804D3FFE703208DF8BE
:10170000170074E0E7E721E06021C4F247210020E0
:101710000860FFF79BF90390FFE743F60000C4F26F
:101720000200006800F000710020B0EB516F0CD097
:10173000FFE7FFF78BF90399401A032804D3FFE76B
:1017400003208DF8170052E0E7E7FFE74AE004982E
:101750008069012804D1FFE701208DF8170046E0D9
:1017600043F60400C4F20200006802900498806905
:10177000012831D0FFE7029800F480000499C9697C
:10178000884229D1FFE7029800F03F000499096AD6
:10179000884221D1FFE7029847F6C07108400499BA
:1017A000496AB0EB811F17D1FFE7029800F440307F
:1017B0000499896AC9034FF6FF729143A1F58031FC
:1017C000884209D1FFE7029800F070600499C96A65
:1017D000B0EB016F04D0FFE701208DF8170006E0A1
:1017E000FFE7FFE7FFE700208DF81700FFE79DF810
:1017F000170006B080BD000080B582B00090009850
:1018000020B9FFE701208DF8070080E00098407FB5
:1018100038B9FFE7009900200877009800F07CF8BD
:10182000FFE7009902204877FFE700980168CA2087
:1018300048620098016853204862FFE7009801F071
:1018400095F868B1FFE7FFE700980168FF2048625C
:10185000FFE700990420487701208DF8070056E043
:101860000098016888684FF6BF72CFF68F721040FB
:101870008860009A116850681369526918430243DE
:1018800088681043886000980168C0680861009803
:1018900001688268086940EA0240086100980168AE
:1018A000C86820F08000C8600098006880688006E2
:1018B000002813D4FFE7009800F042F868B1FFE772
:1018C000FFE700980168FF204862FFE700990420C5
:1018D000487701208DF8070019E0FFE700980168BC
:1018E000086C20F480200864009801688269086C04
:1018F00010430864FFE700980168FF204862FFE793
:1019000000990120487700208DF80700FFE79DF837
:10191000070002B080BD000081B000900098006810
:1019200042F60001C4F20001884207D1FFE740F609
:101930003C61C4F2472101200860FFE701B0704715
:1019400080B584B002900020019002980168C868B8
:1019500020F0A000C860FFF779F80190FFE7029837
:101960000068C068800600280DD4FFE7FFF76EF816
:101970000199401AB0F57A7F04D9FFE703208DF86A
:101980000F0004E0EBE700208DF80F00FFE79DF863
:101990000F0004B080BD000080B582B001900198B6
:1019A00001F018F802B080BD85B003900291FFE706
:1019B000039890F83C00012804D1FFE702208DF83D
:1019C00013007EE00399012081F83C00FFE7FFE768
:1019D0000399022081F83D00039800684068019057
:1019E0000398006880680090019820F070000190D2
:1019F00002980168019808430190019803990968C9
:101A00004860039800680021C4F2010188423CD07C
:101A1000FFE703980068B0F1804F36D0FFE70398E6
:101A2000006840F20041C4F2000188422DD0FFE777
:101A30000398006840F60001C4F20001884224D0F7
:101A4000FFE70398006840F60041C4F200018842B5
:101A50001BD0FFE70398006840F20041C4F2010187
:101A6000884212D0FFE70398006844F20001C4F2F4
:101A70000101884209D0FFE70398006841F60001A0
:101A8000C4F2000188420ED1FFE7009820F08000E8
:101A900000900298416800980843009000980399CC
:101AA00009688860FFE70399012081F83D00FFE79E
:101AB0000399002081F83C00FFE700208DF8130017
:101AC000FFE79DF8130005B07047000080B582B0B5
:101AD0000090009820B9FFE701208DF807003FE053
:101AE000009890F83D0040B9FFE70099002081F888
:101AF0003C00009800F038F8FFE70099022081F8D8
:101B00003D00009951F8040B01F00CF800990120F8
:101B100081F84600FFE70099012081F83E00009916
:101B200081F83F00009981F84000009981F8410058
:101B3000FFE7FFE70099012081F84200009981F852
:101B40004300009981F84400009981F84500FFE7BF
:101B50000099012081F83D0000208DF80700FFE783
:101B60009DF8070002B080BD82B001900198006826
:101B7000B0F1804F12D1FFE7FFE70020009043F65D
:101B80004000C4F20200016841F0010101600068F8
:101B900000F0010000900098FFE7FFE702B07047F7
:101BA00083B00190019890F83D00012804D0FFE730
:101BB00001208DF80B0064E00199022081F83D00BE
:101BC000019800680021C4F2010188423CD0FFE77F
:101BD00001980068B0F1804F36D0FFE701980068A7
:101BE00040F20041C4F2000188422DD0FFE7019885
:101BF000006840F60001C4F20001884224D0FFE7EB
:101C00000198006840F60041C4F2000188421BD0F0
:101C1000FFE70198006840F20041C4F201018842E8
:101C200012D0FFE70198006844F20001C4F20101FC
:101C3000884209D0FFE70198006841F60001C4F22C
:101C40000001884212D1FFE701980068806800F027
:101C5000070000900098062807D0FFE70198016868
:101C6000086840F001000860FFE706E0019801689D
:101C7000086840F001000860FFE700208DF80B00C5
:101C8000FFE79DF80B0003B07047000080B586B0F9
:101C90000490039100208DF80B00FFE7049890F862
:101CA0003C00012804D1FFE702208DF81700ABE0CB
:101CB0000499012081F83C00FFE7FFE70499022026
:101CC00081F83D000498006880680190019820F038
:101CD00077000190019820F47F40019001980499C9
:101CE00009688860039800680090002872D0FFE7B8
:101CF000009810286ED0FFE7009820286AD0FFE7F0
:101D00000098302866D0FFE70098402855D0FFE7BC
:101D10000098502837D0FFE70098602840D0FFE7B0
:101D2000009870280BD0FFE70098B0F5805F05D0D1
:101D3000FFE70098B0F5005F16D052E055E0049838
:101D40000068039B5A689968DB6800F0B9FF049843
:101D5000006880680190019840F077000190019838
:101D600004990968886040E004980068039B5A68F9
:101D70009968DB6800F0A4FF04980168886840F463
:101D80008040886031E004980068039A5168D26806
:101D900000F0C6FF04980068502100F0ABFF24E07B
:101DA00004980068039A5168D26800F0E1FF049833
:101DB0000068602100F09EFF17E004980068039A15
:101DC0005168D26800F0ACFF04980068402100F030
:101DD00091FF0AE0049800680399096800F08AFFFF
:101DE00003E001208DF80B00FFE70499012081F842
:101DF0003D00FFE70499002081F83C00FFE79DF8D3
:101E00000B008DF81700FFE79DF8170006B080BDA6
:101E1000FFE7FEE780B586B00590049100208DF8BD
:101E20000F000498406808B1FFE7FFE742F20000A6
:101E3000C4F2010000F092F8019042F20010C4F2E6
:101E4000010000F08BF8014601980843029042F22D
:101E50000020C4F2010000F081F801460298084316
:101E600038BBFFE704984068A8B1FFE705984068D1
:101E700041F2E001CFF6FC710840049A1168D2F8F3
:101E800004C09368D26841EA0C0119431143084326
:101E9000059948600CE00598406841F2E001CFF6F2
:101EA000FC71084004990968084305994860FFE7F8
:101EB00003E001208DF80F00FFE79DF80F0006B04A
:101EC00080BD000083B00290019100200090019835
:101ED00020B9FFE702984C30009005E042F208304C
:101EE000C4F201000090FFE7009803B070470000C3
:101EF00081B000900099886840F00100886001B0CE
:101F00007047000080B584B00390029100208DF8E6
:101F10000700039800F022F8C0B9FFE70398406873
:101F20004FF6FF61CFF6FF410840029A11689268B0
:101F300011430843039948600398806820F40060C7
:101F40000299496808430399886003E001208DF8ED
:101F50000700FFE79DF8070004B080BD81B0009046
:101F60000098806800F0010001B0704780B584B02F
:101F70000390029100208DF807000298406808B194
:101F8000FFE7FFE70398FFF7E9FF68BBFFE7029869
:101F9000406850B1FFE70398406820F46840029918
:101FA000896808430399486006E00398406820F474
:101FB000684003994860FFE7039880684FF6FD4149
:101FC000CCF2FF010840029A1168D368126901F04F
:101FD000706119431143084303998860039802997B
:101FE000496800F017F803E001208DF80700FFE7CB
:101FF0009DF8070004B080BD82B001900091019867
:10200000806820F48060009908430199886002B0DC
:102010007047000082B0019000910198C06A20F4DE
:102020007000009908430199C86202B0704700002F
:1020300084B00390029101920398029901F44071D7
:1020400000EB91102C30009000980068029901F08C
:102050001F021F2191408843019901F01F01914007
:1020600008430099086004B07047000082B00190F6
:102070000091009A019988681043886002B0704707
:1020800084B00390029101920398029901F00071CB
:1020900000EBD1500C300090009800680299C1F319
:1020A00004520721914088430199914008430099C7
:1020B000086004B07047000082B00190019A43F6B6
:1020C0003000C4F202000168114301600068019908
:1020D00008400090009802B07047000082B0019064
:1020E000019A43F64400C4F2020001681143016002
:1020F0000068019908400090009802B07047000005
:1021000081B0009000992020886001B070470000E5
:1021100084B0DDF810C003900291019200930498FE
:10212000402811D1FFE701980399029B43F2060270
:10213000C0F60002D35C1944C86000980399029B62
:10214000D25C1144886010E001980399029B43F22D
:102150000602C0F60002D35C194488600098039917
:10216000029BD25C1144C860FFE704B070470000D6
:1021700082B0019000910198009A43F20601C0F6E6
:102180000001895C0144486920F00400486102B004
:102190007047000082B0019000910199009A43F2CB
:1021A0000600C0F60000825C885840F0100088509D
:1021B00002B0704782B0019000910199009A43F2F9
:1021C0000600C0F60000825C885840F0010088508C
:1021D00002B0704781B0009000980068C0F34010D2
:1021E00001B0704783B0029001910092029801996A
:1021F00043F20602C0F60002515C405820F06060D5
:10220000009908430299019BD25C885003B0704743
:1022100083B00290019100920298019943F2060264
:10222000C0F60002515C084440684FF6FF718843D5
:10223000009908430299019BD25C1144486003B0A5
:102240007047000083B002900191009202980199BA
:1022500043F20602C0F60002515C405820F0C00074
:10226000009908430299019BD25C885003B07047E3
:1022700083B00290019100920298019943F2060204
:10228000C0F60002515C405820F480600099084379
:102290000299019BD25C885003B0704783B00290D2
:1022A000019100920298019943F20602C0F60002E1
:1022B000515C405820F4C040009908430299019BAA
:1022C000D25C885003B0704783B0029001910092B5
:1022D0000298019943F20602C0F60002515C405890
:1022E00020F49070009908430299019BD25C8850B9
:1022F00003B0704783B00290019100920298019957
:1023000043F20602C0F60002515C405820F400700F
:10231000009908430299019BD25C885003B0704732
:1023200083B00290019100920298019943F2060253
:10233000C0F60002515C405820F4C0500099084398
:102340000299019BD25C885003B0704783B0029021
:10235000019100920298019943F20602C0F6000230
:10236000515C405820F44030009908430299019B89
:10237000D25C885003B0704780B584B0039002915E
:102380000020019000900298006890FAA0F0B0FA46
:1023900080F00190FFE7029800680199C84000288A
:1023A0004FD0FFE702980068019A01219140084050
:1023B00000900098002840D0FFE70298406801286C
:1023C00005D0FFE70298406802280DD1FFE7039887
:1023D0000099029A926800F0A1F803980099029A75
:1023E000D26800F075F8FFE703980099029A126925
:1023F00000F07EF802984068022817D1FFE70098A5
:1024000090FAA0F0B0FA80F0072807D8FFE7039809
:102410000099029A526900F017F806E003980099B3
:10242000029A526900F026F8FFE7FFE70398009947
:10243000029A526800F036F8FFE7019801300190E7
:10244000A9E7002004B080BD83B002900191009202
:102450000298006A019991FAA1F1B1FA81F18A001A
:102460000F219140884300999140084302990862E6
:1024700003B0704783B00290019100920298406AC5
:102480000199090A91FAA1F1B1FA81F18A000F21AB
:10249000914088430099914008430299486203B0F3
:1024A0007047000083B0029001910092029800688A
:1024B000019991FAA1F1B1FA81F14A000321914009
:1024C00088430099914008430299086003B070471F
:1024D00083B002900191009202984068019988436C
:1024E000009A514308430299486003B070470000C6
:1024F00083B00290019100920298C068019991FA0C
:10250000A1F1B1FA81F14A00032191408843009979
:10251000914008430299C86003B0704783B00290AD
:102520000191009202988068019991FAA1F1B1FAA3
:1025300081F14A000321914088430099914008436A
:102540000299886003B0704780B59AB00020079068
:10255000199018901790169015901490139012904F
:10256000119010900F900E900D900C900B900A907F
:10257000099008904FF480700290FFF7AFFD0120A2
:102580000190FFF799FD019907980891032109919E
:102590000C900020C4F2020008A9FFF7EDFE079A94
:1025A00046F20040C4F2020003901146FFF71AFE03
:1025B0000398079A1146FFF745FE0398079A1146BC
:1025C000FFF7C4FE029A03980799FFF77DFE039870
:1025D000079A1146FFF78EFE039807994FF4806221
:1025E0000492FFF745FE039807994FF40062FFF746
:1025F00097FE039807994FF40052FFF74FFE039898
:102600000799FFF7B5FD079817901890199042F2B7
:102610000000C4F20100059017A9FFF773FC0799A9
:1026200005984FF0B05212921391149115914FF4F6
:102630004071169112A9FFF799FC04990598FFF7CC
:10264000DBFC07984FF480310E910F9042F200307E
:10265000C4F201000EA9FFF7DDFB05984FF0805191
:10266000FFF704FD05984FF400714FF000720692D9
:10267000FFF7DEFC05980699079AFFF701FD1AB0EF
:1026800080BD000080B582B000200190009040F233
:102690001410C2F2000047F20041C4F200010160D0
:1026A000FDF7EAFE18B1FFE7FDF78CFEFFE7002219
:1026B0000092019240F21410C2F200006946FDF748
:1026C00089FE18B1FFE7FDF77DFEFFE702B080BD90
:1026D00080B582B0FFE70020019043F63000C4F2DD
:1026E0000200016841F480010160006800F480008C
:1026F00001900198FFE700F07FFB0022114600F0F7
:10270000C7F801463820009000F086FB009800F0E2
:102710005BFB02B080BD000080B58CB000200B9048
:102720000A90099008900790FFE70020069043F672
:102730003000C4F20200016841F004010160006849
:1027400000F0040006900698FFE7FFE700200590E0
:1027500043F63000C4F20200016841F080010160DC
:10276000006800F0800005900598FFE7FFE7002073
:10277000049043F63000C4F20200016841F0010108
:102780000160006800F0010004900498FFE7002059
:10279000C4F2020003900221019100220292FEF78E
:1027A0003DF9019A02990398079201220892099231
:1027B0000A9107A9FDF742FF0CB080BD80B582B039
:1027C00040F22810C2F20000019042F60001C4F26B
:1027D00000010160002141607F228260FF22C2600F
:1027E000016141618161FFF707F818B1FFE7FDF76B
:1027F000E9FDFFE702B080BD80B588B000210191FE
:1028000007910691059104910391029140F24810BD
:10281000C2F200004FF080420260532242608160A9
:10282000C822C260016180218161FFF74FF918B1B0
:10283000FFE7FDF7C7FDFFE74FF48050049040F23B
:102840004810C2F2000004A9FFF720FA18B1FFE710
:10285000FDF7B8FDFFE7202002900020039040F232
:102860004810C2F2000002A9FFF79EF818B1FFE776
:10287000FDF7A8FDFFE740F24810C2F20000FFF7A5
:102880008FF908B080BD0000FFE7FEE7FFE7FEE735
:1028900088B0079006910592079800F00700049011
:1028A0000498C0F10700052803D3FFE70420019036
:1028B00004E00498C0F107000190FFE7019803903D
:1028C00004980430062803D8FFE70020009003E0B6
:1028D000049803380090FFE7009802900698039947
:1028E000012202FA01F101390840029B9840059942
:1028F0009A40013A1140084308B0704788B00790E9
:1029000006910592079800F0070004900498C0F122
:102910000700052803D3FFE70420019004E0049892
:10292000C0F107000190FFE701980390049804307C
:10293000062803D8FFE70020009003E0049803383E
:102940000090FFE70098029006980399012202FA8E
:1029500001F101390840029B984005999A40013ADB
:102960001140084308B070477047000080B584B03C
:1029700002900020019002980068C068400600287C
:102980001ED4FFE7029801684FF0FF30C860FEF7E1
:102990005DF80190FFE702980068C06840060028D3
:1029A0000DD4FFE7FEF752F80199401AB0F57A7F8F
:1029B00004D9FFE703208DF80F0005E0EBE7FFE700
:1029C00000208DF80F00FFE79DF80F0004B080BDD8
:1029D0007047000080B582B0009000980138B0F1D7
:1029E000807F03D3FFE70120019019E000980138B0
:1029F0004EF21401CEF2000108604FF0FF300F21BB
:102A000000F02CFA4EF21801CEF20001002008600E
:102A10004EF21002CEF20002072111600190FFE792
:102A2000019802B080BD000080B5FEF715F880BDAA
:102A300080B598B00CA83021FDF7FAFB002000907B
:102A40000B900A90099008900790069005900490CA
:102A50000390FFE70020029043F64000C4F202001A
:102A6000016841F080510160006800F080500290E0
:102A70000298FFE7FFE70020019047F20000C4F250
:102A80000000016841F480410160006800F480406A
:102A900001900198FFE709200C904FF480300D90D1
:102AA00001201190022112914FF480001390042014
:102AB0001490A8221592169117900CA8FEF73CFBD3
:102AC00018B1FFE7FDF77EFCFFE70F20079002201B
:102AD0000890002009904FF4A0500A900B9007A88E
:102AE0000521FEF783F918B1FFE7FDF76BFCFFE75F
:102AF000022003904FF40070069003A8FEF75CF8E4
:102B000018B1FFE7FDF75EFCFFE718B080BD0000DD
:102B10004EF68851CEF20001086840F4700008605B
:102B20007047000083B00290019102980068009005
:102B300002980021C4F20101884225D0FFE70298E3
:102B4000B0F1804F20D0FFE7029840F20041C4F27C
:102B50000001884218D0FFE7029840F60001C4F255
:102B60000001884210D0FFE7029840F60041C4F20D
:102B70000001884208D0FFE7029840F20041C4F209
:102B8000010188420AD1FFE7009820F07000009010
:102B900001984168009808430090FFE702980021DF
:102BA000C4F20101884255D0FFE70298B0F1804F8E
:102BB00050D0FFE7029840F20041C4F20001884281
:102BC00048D0FFE7029840F60001C4F200018842B5
:102BD00040D0FFE7029840F60041C4F2000188426D
:102BE00038D0FFE7029840F20041C4F20101884268
:102BF00030D0FFE7029844F20001C4F2010188429C
:102C000028D0FFE7029844F20041C4F20101884253
:102C100020D0FFE7029844F60001C4F20101884287
:102C200018D0FFE7029841F60001C4F20001884283
:102C300010D0FFE7029841F60041C4F2000188423B
:102C400008D0FFE7029842F20001C4F20001884276
:102C50000AD1FFE7009820F4407000900198C16805
:102C6000009808430090FFE7009820F08000019949
:102C700049690843009000980299086001988068AB
:102C80000299C8620198006802998862029800213E
:102C9000C4F20101884208D0FFE7029840F20041E7
:102CA000C4F20101884205D1FFE701980069029949
:102CB0000863FFE702990120486103B070470000F4
:102CC00085B004900391029201930498806800906B
:102CD000009820F47F40009003980299019A41EAFD
:102CE00002210143009808430090009804998860ED
:102CF00005B0704783B002900191029880680090FF
:102D0000009820F07000009001980099084340F06E
:102D10000700009000980299886003B07047000097
:102D200085B00490039102920498006A009004997F
:102D3000086A20F0010008620498806901900198F7
:102D400020F0F00001900299019840EA01100190F2
:102D5000009820F00A000090039900980843009022
:102D600001980499886100980499086205B0704739
:102D700085B00490039102920499086A20F0100033
:102D800008620498806901900498006A0090019894
:102D900020F4704001900299019840EA01300190BE
:102DA000009820F0A00000900399009840EA0110DC
:102DB000009001980499886100980499086205B010
:102DC00070470000FFE7FEE781B08DF803009DF932
:102DD000030000280ED4FFE79DF9031001F01F0245
:102DE000012090404A094EF20011CEF2000141F854
:102DF0002200FFE701B070474EF60C50CEF2000003
:102E00000068C0F3022070474EF60C50CEF200006E
:102E10000068C0F30220704782B08DF8070000916F
:102E20009DF9070000280AD4FFE7009800019DF9EA
:102E300007104EF20042CEF2000288540BE00098D8
:102E400000019DF8071001F00F014EF61452CEF26A
:102E500000028854FFE702B07047000082B08DF88E
:102E6000070000919DF9070000280AD4FFE70098A9
:102E700000019DF907104EF20042CEF20002885484
:102E80000BE0009800019DF8071001F00F014EF6CD
:102E90001452CEF200028854FFE702B070470000DF
:102EA00083B00290029800F0070000904EF60C519B
:102EB000CEF200010868019001984FF6FF02104021
:102EC00001900198009A40EA02200022C0F2FA52D2
:102ED000104301900198086003B0704780B586B038
:102EE000002003900590FDF7C5FDFFF7A1FDFFF75A
:102EF00013FCFFF7EDFBFFF727FBFFF7C3FBFFF723
:102F00005DFCFFF779FC039942F20000C4F2010076
:102F10000490FEF7D7FF039902466846016040F22D
:102F20001603C2F2000346F20040C4F2020002900F
:102F3000FFF7EEF8039940F21410C2F2000001907E
:102F4000FDF724FB039B019819461A46FDF7FEFA8C
:102F5000039902987D22FFF75BF902980399FFF726
:102F600019F902980399FFF725F90498FEF7C0FFB5
:102F700004984FF08051FFF779F8FFE740F2101006
:102F8000C2F200000078012825D1FFE740F21011BD
:102F9000C2F200010020087040F29011C2F200015C
:102FA000086841F25972CDF2B712A0FB0220000B63
:102FB0000860086840F6E442504308600A6840F23E
:102FC0000110C0F21000A2FB0030121A00EB5200F8
:102FD000C00A0860FFE7D1E702E008C8121F08C175
:102FE000002AFAD170477047002001E001C1121F8A
:102FF000002AFBD170470000000000000000010221
:10300000030406070809102840587088A0B800007B
:10301000303000080000002010000000D82F000809
:10302000403000081000002088050000E82F00084C
:103030000024F40001000000100000000000000067
:040000050800018965
:00000001FF
